:0200000019C025
:10000200FECFFDCFFCCFFBCFFACFF9CFF8CFF7CFA2
:10001200F6CFF5CFF4CFF3CFF2CFF1CFF0CFEFCFD2
:10002200EECFEDCFECCFEBCF0000010002002A00B3
:100032000000F894EE27ECBBF1E0FBBFEBBFE5BF9D
:100042008DE0A2E0BB27ED938A95E9F780E092E08C
:10005200A0E6ED930197E9F7ECE2F0E08591959146
:10006200009761F0A591B59105901590BF01F0013F
:1000720005900D920197E1F7FB01F0CFEFE5EDBF9F
:10008200E2E0EEBFC0EED0E000C0EFEFEABBE0E09E
:10009200EBBBE7BBEFEFE8BBE0E0E4BBE5BBE1BBFA
:1000A200E2BBE3BFE2BFECBFEFBDEEBDEDBDECBD19
:1000B200E7BDE6BDEBBDEABDE9BDE8BDE2BDE5BD1C
:1000C200E4BDE3BDE9BFE5BFE4BFEAB9E0E8E8B9F2
:1000D200E0E0E0BFE6B9EDB9E6BFB09902C0E8944E
:1000E20001C0689420F820FC04C0D89AA5E02FD063
:1000F20030D020FC31D0B19902C0E89401C068949C
:1001020021F821FC04C0D89AA7E021D022D021FCFA
:1001120023D0B29902C0E89401C0689422F822FC6C
:1001220004C0D89AABE013D014D022FC15D0B399F6
:1001320002C0E89401C0689423F823FC04C0D89A52
:10014200A8E205D006D023FC07D0C7CFFFCFB0E08E
:1001520005C0D898A4E1FBCFA4E1F9CF109639F0FD
:100162008AEF90E00197F1F7A8951197C9F70895E2
:00000001FF
