:0E00000020C0FECFFDCFFCCFFBCFFACFF9CF53
:10000E00F8CFF7CFF6CFF5CFF4CFF3CFF2CFF1CFC6
:10001E00F0CFEFCFEECFEDCFECCFEBCF0A0502084E
:10002E000000000000000100020030000200060087
:10003E0032000000F894EE27ECBBF1E0FBBFEBBF03
:10004E00E5BF8DE0A2E0BB27ED938A95E9F780E04E
:10005E0092E0A0E6ED930197E9F7E4E3F0E08591F5
:10006E009591009761F0A591B59105901590BF01FE
:10007E00F00105900D920197E1F7FB01F0CFEFE54E
:10008E00EDBFE2E0EEBFC0EED0E000C0EFEFEABBA6
:10009E00E0E0EBBBE7BBEFEFE8BBE0E0E4BBE5BBCA
:1000AE00E1BBE2BBE3BFE2BFECBFEFBDEEBDEDBD1A
:1000BE00ECBDE7BDE6BDEBBDEABDE9BDE8BDE2BD09
:1000CE00E5BDE4BDE3BDE9BFE5BFE4BFEAB9E0E8E5
:1000DE00E8B9E0E0E0BFE6B9EDB9E6BFE8B3EF7727
:1000EE005E2E06D015D024D033D042D0F7CFFFCF1E
:1000FE0069D068F4B09902C0E89401C0689420F801
:10010E0020FC03C064D0E0E067D020FC6CD00895E2
:10011E0059D068F4B19902C0E89401C0689421F8EE
:10012E0021FC03C054D0E1E057D021FC5CD00895EF
:10013E0049D068F4B29902C0E89401C0689422F8DC
:10014E0022FC03C044D0E2E047D022FC4CD00895FC
:10015E0039D068F4B39902C0E89401C0689423F8CA
:10016E0023FC03C034D0E3E037D023FC3CD0089509
:10017E00E9E0F0E06E167F0620F1B49902C0E89433
:10018E0001C0689424F824FC1AC066247724EAE09F
:10019E00F0E0E615F70571F01AD0EC91F0E0E65DAF
:1001AE00FF4F04900BBAF30131963F01A8EEB3E076
:1001BE001DD0EDCFEEE2F0E004900BBA14D024FC8B
:1001CE0012D00895EAE0F0E06E167F060895A0EED4
:1001DE00B0E0A60DB71D0895EC93F30131963F01E3
:1001EE00A8E2B0E003C0A8E2B0E000C0109639F07B
:1001FE008AEF90E00197F1F7A8951197C9F7089546
:00000001FF
