:040000001CC0FECF53
:10000400FDCFFCCFFBCFFACFF9CFF8CFF7CFF6CFA8
:10001400F5CFF4CFF3CFF2CFF1CFF0CFEFCFEECFD8
:10002400EDCFECCFEBCF0A05020800000000020080
:10003400020030000000F894EE27ECBBF1E0FBBFB7
:10004400EBBFE5BF8DE0A2E0BB27ED938A95E9F70E
:1000540080E092E0A0E6ED930197E9F7E2E3F0E0B7
:1000640085919591009761F0A591B59105901590B2
:10007400BF01F00105900D920197E1F7FB01F0CF6C
:10008400EFE5EDBFE2E0EEBFC0EED0E000C0EFEF81
:10009400EABBE0E0EBBBE7BBEFEFE8BBE0E0E4BBCF
:1000A400E5BBE1BBE2BBE3BFE2BFECBFEFBDEEBD2E
:1000B400EDBDECBDE7BDE6BDEBBDEABDE9BDE8BD08
:1000C400E2BDE5BDE4BDE3BDE9BFE5BFE4BFEAB918
:1000D400E0E8E8B9E0E0E0BFE6B9EDB9E6BF442402
:1000E400552466247724689436F808D020D038D074
:1000F40050D068D09DD0B3D0F8CFFFCFCED0B0F4DD
:10010400B09902C0E89401C0689420F821FE02C0AE
:1001140020FE01C003C0C6D0E0E0C9D021FC02C06B
:1001240020FC01C001C0CAD020FA21F80895B5D03E
:10013400B0F4B19902C0E89401C0689422F823FE97
:1001440002C022FE01C003C0ADD0E1E0B0D023FC68
:1001540002C022FC01C001C0B1D022FA23F80895E4
:100164009CD0B0F4B29902C0E89401C0689424F819
:1001740025FE02C024FE01C003C094D0E2E097D063
:1001840025FC02C024FC01C001C098D024FA25F843
:10019400089583D0B0F4B39902C0E89401C0689480
:1001A40026F827FE02C026FE01C003C07BD0E3E090
:1001B4007ED027FC02C026FC01C001C07FD026FAF5
:1001C40027F80895E9E0F0E04E165F0680F1B4994F
:1001D40002C0E89401C0689430F831FE02C030FED9
:1001E40001C01DC0EAE0F0E0E615F705B1F037D034
:1001F40036FE11C0A0EEB0E0A60DB71DEC91F0E004
:10020400E65DFF4F04900BBAF30131963F01A8EE6F
:10021400B3E05CD001C055D0E5CF53D04FD031FC12
:1002240002C030FC01C001C049D030FA31F8089551
:10023400B69902C0E89401C0689434F835FE02C04F
:1002440034FE01C003C04424552438D035FC02C018
:1002540034FC01C001C032D034FA35F80895B599A0
:1002640002C0E89401C0689432F833FE02C032FE42
:1002740001C00AC036FE04C0E89436F8DC9A03C014
:10028400689436F8DC981AD033FC02C032FC01C002
:1002940001C014D032FA33F80895EAE0F0E04E16C3
:1002A4005F060895A0EEB0E0A40DB51D0895EC938B
:1002B400F20131962F01A8E2B0E008C0A8E2B0E054
:1002C40005C0EEE2F0E004900BBA0895109639F000
:1002D4008AEF90E00197F1F7A8951197C9F708956F
:00000001FF
