:0C00000019C0FECFFDCFFCCFFBCFFACF24
:10000C00F9CFF8CFF7CFF6CFF5CFF4CFF3CFF2CFC0
:10001C00F1CFF0CFEFCFEECFEDCFECCFEBCF0000A9
:10002C00010002002A000000F894EE27ECBBF1E07E
:10003C00FBBFEBBFE5BF8DE0A2E0BB27ED938A953C
:10004C00E9F780E092E0A0E6ED930197E9F7ECE2A6
:10005C00F0E085919591009761F0A591B59105908F
:10006C001590BF01F00105900D920197E1F7FB018E
:10007C00F0CFEFE5EDBFE2E0EEBFC0EED0E000C0A8
:10008C00EFEFEABBE0E0EBBBEFEFE7BBE0E0E8BB98
:10009C00E4BBE5BBE1BBE2BBE3BFE2BFECBFEFBD42
:1000AC00EEBDEDBDECBDE7BDE6BDEBBDEABDE9BD0A
:1000BC00E8BDE2BDE5BDE4BDE3BDE9BFE5BFE4BF1E
:1000CC00EAB9E0E8E8B9E0E0E0BFE6B9EDB9E6BFCF
:1000DC00E0EDF7E06F010C2C0D28F9F0809B02C0CD
:1000EC00689401C0E89421F820FC02C021FC01C0F6
:1000FC0006C0F20139962F01A8E2B0E04FD020FEE5
:10010C0002C021FE01C003C0A8E2B0E047D021FA32
:10011C0020F8F60131976F01DECFE5E5F0E038D03D
:10012C0020F0E4E6F0E037D008F404C0C09AC1989F
:10013C00C29A29C0ECE3F0E02BD020F0E0E5F0E02F
:10014C002AD008F405C0C098C19AC298C39A1CC0A2
:10015C00EEE1F0E01DD020F0E2E3F0E01CD008F47A
:10016C0004C0C098C198C29A0EC0E1E0F0E010D073
:10017C0020F0E4E1F0E00FD008F402C0C09A01C016
:10018C00C098C198C298C39844245524A1CFFFCFDE
:10019C004E165F060895E415F5050895109639F08E
:1001AC008AEF90E00197F1F7A8951197C9F7089598
:00000001FF
